:020000040000FA
:0600000002010A02264A7B
:03002B00022A7432
:03004300022A4E40
:030053000226C0C2
:03007300022A8DD1
:1000830002253BE5C754F84401F5C7790122000076
:100093000080FB120086B900030200F4E4792178A2
:1000A30008B800028004F709D8FCE479297802B87B
:1000B30000028004F709D8FCE4900301782D790C41
:1000C3008002F0A3D8FCD9FA900E2DAA82AB8390BC
:1000D300013A78B679048015E493A3AC82AD838AA0
:1000E300828B83F0A3AA82AB838C828D83D8E9D9D8
:1000F300E775822B7583B1740312011C75829175A8
:100103008300740012011C75D00075812A751801D3
:10011300751903759F00020096C09FF59FE473D085
:100123009F22D083D082C09FE493C0E0740193C028
:10013300E0740293F59F22FF0000B400002800281A
:1001430000283075A000A000A000A000000800084F
:10015300E001F0001000100010001000100010006B
:1001630050005000500010001000D00700000000A5
:1001730000000F00010005003075070010000100AA
:1001830081FF0000FFED060B07F306FF02020208E2
:10019300025000A0000000E80302B18F01000093A9
:1001A3008F02B58F010000820E02E58F010000323D
:1001B3000302B58F010000830E02BD8F01000048CA
:1001C3000302B58F010000840E02BF8F0100004AB5
:1001D3000302B58F010000850E02C18F0800004B9A
:1001E3000302B58F010000860E02C38F0100008752
:1001F3000EFF0100FF2002B18F0100008A8F02B5BC
:100203008F010000EB0E02C58F000000000002B951
:100213008F0300009803110D110D110D110D110D18
:10022300110D110D110D110D110D110D110D110DDB
:10023300E10FF90FDB0FFFFF12416374696D657402
:10024300727920494D5520446174610012416374F1
:10025300696D65747279205175617465726E696F29
:100263006E2044617461001A416374696D65747230
:100273007920436F6E66696700416374696D6574C5
:10028300727920436F6E74726F6C0002B18F01003C
:1002930000968F02B58F0100002E0F02DF8F010041
:1002A30000FA0702B98F0300000E0802B78F01009E
:1002B300002F0F02B58F010000420F02D78F0100FC
:1002C300001A0802B98F0300002A0802B78F010041
:1002D30000430F02B58F0100005D0F02D58F0100AF
:1002E30000360802B98F0100003C0802B78F0100F5
:1002F300005E0F02D38F030000480802B98F03008A
:10030300004B0802B78F0100006F0F1202B18F017B
:100313000000998F02B58F010000011002A78F0121
:100323000000570802B98F030000580802020202B6
:100333000202020202010D000000100102B18F014E
:1003430000009C8F02B58F010000221002A38F01D1
:100353000000640802B58F010000231002A18F0181
:100363000000F48E02B58F0100002410029F8F015C
:1003730000006C0802B58F010000251002E78F0111
:1003830000006E0802B58F010000261002DD8F0108
:1003930000008B0802B58F010000271002D18F01E6
:1003A30000008D0802B58F010000281002BB8F01E9
:1003B3000000008F02B58F010000291002AB8F01EE
:1003C3000000AD8E02B58F0100002A1002A58F0137
:1003D30000002B1001053F10020000605D101202A7
:1003E30002B18F010000908F02B58F010000CE1083
:1003F30002C98F010000CF1002B58F010000D31096
:1004030002CB8F010000560902B98F030000670970
:1004130002B58F010000D41002CD8F0100007309D3
:1004230002B98F0300007A0902B58F010000D510CD
:1004330002CF8F0100008609FF000130750302011E
:1004430006000000000000000000000000000000A3
:1004530000000000000000000000000000FFFF0695
:1004630000800CE8031A02B18F0100008D8F02B5E2
:100473008F0100005B1102DB8F030000070D02B93F
:100483008F030000110D0B0957494D55332D787813
:1004930078780201060702EE7019180F180518572D
:1004A300494D55333031323334353637383941429B
:1004B3004344454600286E756C6C20706F696E74FA
:1004C300657229003F3F3F000000807F0000803FAE
:1004D300F9021550B743BA510000204100E7DB2E63
:1004E3000000A0401000000008000000120125A435
:1004F300A303120125BBA303120125EAA3031201DF
:100503002523A4031201254BA40312012579A40377
:1005130012012590A403120125A7A403120125BDEE
:10052300A403120125E4A403120125F7A403120175
:10053300250DA50312012520A50312012545A503B9
:1005430012012506A30212012505A4021201253A70
:10055300A4021201255BA4021201256BA40212015D
:10056300258CA40212012598A50212012565A60275
:10057300120125D8A6021201255EA702120125A1A8
:10058300A702120125D8A7021201255EA8021201B3
:100593002530A9021201258EA902120125A6A9025E
:1005A30012012520AA0212012523AA0212012526DF
:1005B300AA02120125CDAA02120125E5AA021201FF
:1005C3002515AB0212012535AB0212012523AC021E
:1005D300120125D9AC0212012594F302120125BCA4
:1005E300F302120125EAF30212012521F40212019A
:1005F3002589F402120125D2F4021201251DF50208
:100603001201255BF50212012598F502120125C698
:10061300F5021201256DF60212012577F602120189
:100623002584F602120125B7F60212012579F70295
:1006330012012585F7021201259DF702120125A754
:10064300F70212012594AD03120125A2AD03120195
:1006530025BAAD03120125D2AD0312012596BE01C1
:1006630012012534BF01120125ACBF01120125C1BE
:10067300C001120125FBC001120125A4C101120111
:100683002579C201120125DDC30112012534C401FC
:10069300120125BBC401120125A2C501120125EFD8
:1006A300C5011201257DC601120125A1C601120152
:1006B3002576C801120125B7C801120125D9C80141
:1006C3001201255AC90112012544CA011201250A42
:1006D300CB011201254ED70212012520D8021201A7
:1006E30025C9D8021201250CD90212012599D90274
:1006F30012012525DA0212012506DB021201253536
:10070300DB0212012531DC0212012579DC02120120
:10071300257BDD02120125BFDD02120125E5DD0285
:100723001201250BAF03120125ED900312012503DE
:1007330091031201252991031201255192031201FC
:10074300255B9203120125B49303120125B494038C
:10075300120125ACE902120125E1EA021201251476
:10076300EB021201255EEB021201251CED021201C0
:10077300253BA0011201259EA001120125E3A10141
:10078300120125F3A10112012516A201120125610F
:10079300A20112012506A301120125FCA3011201E6
:1007A30025C6A4011201253EA60112012580A6013A
:1007B3001201251EA7011201256BA7011201259124
:1007C300A7011201257FA90112012584A9011201A4
:1007D3002565AB01120125B9AB011201251BAC0143
:1007E30012012543AC01120125E7AC01120125A931
:1007F300AD01120125DAAD01120125DDAD011201B2
:100803002525AE0112012567AE01120125CEAE01E9
:10081300120125A49D03120125B79D03120125D0C2
:100823009D031201251B9E03120125F69E0312014F
:1008330025859F03120125D09F03120125F72A0066
:10084300120125032B001201253C2B0012012581E7
:100853002B00120125382C00120125BE2C00120199
:1008630025232D001201254F2D00120125882D006F
:100873001201259C2F0012012578310012012563F6
:1008830033001201259A3400120125FA36001201B1
:1008930025E637001201252C3900120125393A00CB
:1008A300120125563A001201258E3A00120125A89D
:1008B3003A00120125103B00120125AA3F00120144
:1008C300254B40001201259C4000120125C3400026
:1008D3001201251141001201252F41001201258328
:1008E30041001201255C4200120125E3430012017D
:1008F300256B44001201250080031201250A8003A1
:10090300120125D58003120125F08003120125165B
:1009130081031201255A81031201259281031201D9
:1009230025BB810312012534820312012549820369
:100933001201255E8203120125958203120125A966
:100943008203120125DA82031201251483031201A3
:1009530025408303120125B7830312012500840375
:100963001201252A84031201254F84031201250154
:100973008D03120125CB8D03120125AE8E031201C7
:1009830025248F03120125668F03120125939003FB
:10099300120125008002120125298002120125423D
:1009A300800212012587810212012565820212014C
:1009B3002584820212012511830212012554830228
:1009C300120125A18402120125408502120125BFCF
:1009D30087021201255688021201252A8902120173
:1009E300250C8A02120125788B021201250B8C0239
:1009F300120125A9A90312012512AA0312012566D2
:100A0300AA031201258DAA0312012577840312017B
:100A130025E484031201252F85031201252486036F
:100A23001201252087031201250A88031201258D4F
:100A3300BF02120125CFBF02120125A9C002120174
:100A43002582C1021201257DC2021201255CC30267
:100A5300120125C8C3021201258FC402120125FA0F
:100A6300C40212012561C5021201258CC5021201BF
:100A730025FDC50212012590C602120125F9C60201
:100A83001201250EC70212012556C7021201256F56
:100A9300C702120125D4C702120125D7C7021201CA
:100AA30025F67C001201251E7D001201255C7D00C8
:100AB3001201251A7E00120125857E00120125A14F
:100AC3007E00120125C97E00120125F97E00120164
:100AD30025087F00120125827F00120125A87F00CF
:100AE30012012598AF0112012535B1011201251B11
:100AF300B301120125E5B3011201252CB401120142
:100B03002573B40112012585B401120125C5B40171
:100B1300120125F4B40112012540B5011201257813
:100B2300B501120125A6B501120125F7B501120180
:100B33002586B60112012574B9011201254EBB01A8
:100B43001201258ABB01120125E4BC011201252BE8
:100B5300BD01120125A0BD01120125EEBD01120147
:100B6300258AB602120125A7B60212012541BC024D
:100B730012012543BD02120125BDBE021201256BE0
:100B8300BF02120125D244001201251B45001201A8
:100B9300254845001201257B4500120125884500A3
:100BA300120125944500120125A645001201257B5B
:100BB3004600120125D946001201250E47001201F5
:100BC30025AA4800120125F748001201251B4900F8
:100BD3001201258849001201252D4A00120125E939
:100BE3004A00120125684B001201252C4C0012010A
:100BF300253B4C00120125BC4C001201255B4D0026
:100C03001201258D4D00120125284E001201258663
:100C13004E00120125C04E00120125414F00120162
:100C2300250A5000120125B350001201253A510044
:100C3300120125925100120125F351001201251CC6
:100C43005200120125D252001201251C5400120138
:100C5300255F54001201257C54001201259B54008A
:100C6300120125E654001201250B5500120125340B
:100C73005500120125A35500120125E55500120167
:100C830025E956001201258357001201254F58000C
:100C930012012568580012012532F601120125853B
:100CA300F60112012591F60112012566F7011201E1
:100CB300258DF701120125C8F70112012534F8012A
:100CC30012012568F801120125A1F801120125B9C5
:100CD300F80112012512F9011201252BF901120164
:100CE3002574F90112012587F901120125A1F901E2
:100CF300120125B7F901120125D3FA01120125E4E6
:100D0300FB0112012531FD0112012516FE0112011D
:100D130025F4FF021201254CE90112012580E901A6
:100D2300120125EBEC0112012535EE01120125FF1D
:100D3300EE0112012589F00112012564F10112016E
:100D4300259EF101120125C1F10112012503F201D2
:100D53001201250CF20112012556F2011201256040
:100D6300F2011201250CF301120125E0F301120136
:100D73002534F40112012596F401120125E9F40149
:100D830012012518F50112012557F5011201259AC3
:100D93005800120125F46000120125FA60001201C7
:100DA30025B566001201259B6A00120125BE940336
:100DB3001201253495031201254A95031201258753
:100DC3009503120125BF95031201253C96031201D9
:100DD30025779603120125F296031201252E970318
:100DE3001201253797031201254397031201255D4D
:100DF3009703120125829703120125989703120185
:100E030025DC9703120125D2EE02120125E5EE023D
:100E1300120125FFEE0212012528EF021201256BB4
:100E2300EF02120125AAEF02120125E8EF021201D7
:100E3300254DF00212012562F0021201256DF00228
:100E43001201257AF00212012591F0021201259F69
:100E5300F002120125AAF002120125B6F0021201D6
:100E630025C9F002120125D4F002120125F7F00280
:100E7300120125A0F102120125B0F102120125CAC7
:100E8300F102120125E7F10212012503F202120118
:100E93002528F20212012532F20212012546F2023E
:100EA30012012565F202120125C6F202120125CCB8
:100EB300F202120125D2F202120125D8F202120126
:100EC30025E4F20212012517F302120125C2DB0108
:100ED30012012544DC01120125EDDC011201253547
:100EE300DE0112012543E00112012529E10112016E
:100EF300255EE10112012580E10112012529E201AC
:100F0300120125F9E30112012522E4011201259AB8
:100F1300E401120125CCE401120125D9E4011201F7
:100F23002524E50112012548E50112012599E70170
:100F3300120125A3E801120125FFE8011201253F53
:100F4300CD0112012550CE0112012534CF0112012A
:100F5300253ECF0112012560CF011201256CCF017F
:100F630012012510D1011201253DD1011201255392
:100F7300D201120125A8D201120125F7D3011201D2
:100F830025CCD40112012528D50112012593D501C1
:100F9300120125C8D5011201250BD601120125D551
:100FA300D801120125EDD8011201257ED9011201C4
:100FB300258CD901120125D9D901120125E7D901BF
:100FC30012012553DA01120125CEDA01120125257A
:100FD300DB01120125E897021201250A980212018A
:100FE300251B9A02120125DA9C02120125049E0296
:100FF300120125C29E02120125AE9F02120125EBAA
:10100300A10312012510A20312012586A2031201D6
:101013002531D0021201253AD00212012543D00214
:101023001201251BD102120125CCD202120125FC8B
:10103300D20212012527D30212012557D30212012E
:101043002582D302120125B6D302120125E2D3026F
:1010530012012525D40212012550D402120125972D
:10106300D402120125ECD4021201252ED50212015D
:101073002588D502120125B3D50212012502D60215
:1010830012012532D6021201255DD6021201258BEB
:10109300D602120125AED60212012594AF03120126
:1010A30025C0AF03120125EDAF03120125F7AF03EE
:1010B30012012507B0031201252AE4021201253487
:1010C300E40212012575E402120125BEE4021201B5
:1010D30025F8E4021201254EE5021201256FE5020F
:1010E30012012578E502120125CCE502120125F54E
:1010F300E502120125FFE5021201256DE602120148
:1011030025FDE60212012558E70212012586E702B2
:101113001201250EE8021201254DE8021201258273
:10112300E80212012594E802120125B3E802120134
:1011330025BCE8021201257EE902120125C0AB039A
:10114300120125FA9F0312012530A0031201256421
:10115300A003120125B1A10312012511B00312014D
:101163002527B00312012531B003120125CC8803D2
:10117300120125DF8803120125A38903120125E249
:101183008903120125FF8903120125388A031201FD
:1011930025858A03120125B78A03120125EE8A03E6
:1011A3001201257BB003120125B7AC03120125DA26
:1011B300AC0312012509AD031201254BAD03120146
:1011C300255ADE02120125A2DE021201251EE002CB
:1011D300120125DAE0021201256EE202120125CC8A
:1011E300E302120125EFA6031201251FA703120133
:1011F3002578A703120125F2A7031201250C9803F2
:10120300120125319803120125999803120125D55E
:10121300B003120125F46A00120125936C00120138
:10122300253E6D00120125BE6D00120125436E009F
:101233001201256C6E00120125477200120125BEB2
:101243007200120125D573001201250F74001201DB
:1012530025507400120125977500120125ED7500C4
:10126300120125367600120125A5760012012511FB
:1012730077001201254277001201255A77001201E7
:1012830025737800120125837800120125397A002D
:10129300120125507A00120125827A0012012524B9
:1012A3007C00120125B87C00120125DEFC0212012C
:1012B300252EFD0212012511FE02120125D6FE0282
:1012C30012012541FF0212012531B2031201257ECD
:1012D300B103120125BDB1031201251EB203120190
:1012E3002585FF0212012595FF02120125A7FF02A2
:1012F300120125EBFF02120125BEAA0312012543A9
:10130300AB03120125A7AB03120125F7FF0212015C
:1013130025F07F001201253CF802120125D3F802C3
:101323001201257FF90212012509FA02120125A5EE
:10133300FA021201258BFB021201256CFC02120139
:101343002576FC0212012589FC02120125A3FC0269
:10135300120125BAFC02120125C4FC02120125DB8D
:10136300FC0212012557A503120125A9A5031201A9
:10137300251CA60312012589A6031201255BA803D8
:1013830012012537A903120125FBC702120125C744
:10139300C80212012508C90212012542C90212011D
:1013A30025A0C902120125F4C90212012552CA025D
:1013B300120125E8CA02120125F0CB021201257A97
:1013C300CD0212012518CE021201257FCE02120191
:1013D3002592CE0212012586CF02120125CFCF021C
:1013E300120125828C02120125BC8F0212012513E2
:1013F3009002120125309002120125B090021201D1
:10140300252C9202120125FB9202120125689602F5
:10141300120125529702120125C7B1031201254576
:101423009B031201257F9B03120125E19B031201FC
:1014330025089C03120125879C0312012544AD0254
:10144300120125C7AD0212012521AE021201259D0D
:10145300AE0212012512AF021201259AB002120147
:101463002581B10212012593B1021201253DB50276
:1014730012012572B502120125FAB502120125D314
:10148300FF011201256BAE0312012595AE03120174
:101493002500B203120125EC8F011201250A9501E3
:1014A300E066701008A3E066700A08A3E0667004A3
:1014B30008A3E06622C008C3E096F50808A3E096F7
:1014C300420808A3E096420808A3E0964208A2D285
:1014D30065D033E5087001D3D00822C3E796080925
:1014E300E7960809E7960809E79622C3E09608A35A
:1014F300E09608A3E09608A3E09622C008C3E0960E
:10150300F50808A3E096420808A3E096420808A35A
:10151300E09645087001D3D00822080808E630E7B2
:1015230011121DD9121535080808C64480C61818AB
:101533001822181818E9799EC608CAC608CBC60827
:10154300CCC6C370207996CACBCC7019798ECBCC1C
:1015530070137986CC700EF9802ACA33CACB33CB89
:10156300CC33CC331930E7F2CCCBCA3350147004EC
:10157300EA30E00DE4CA3ACACB3BCBCC3CCC5002B8
:1015830009C3E913C6CC182313C6CB18C6CA18C699
:10159300F9221215D520F01430E72B74FFFCFBFA67
:1015A300747F8022E4FCFBFA7480801AB48008BC48
:1015B30000F2BB00EF800F50EBF9E4C39AFAE49B0F
:1015C300FBE49CFCE499C6CC18C6CB18C6CA18C663
:1015D300F922E4C9C608CAC608CBC6D3330308CC6C
:1015E300C63392F0C3947F402E94184019C9B907AB
:1015F30004CACBCC225025C309CA33CACB33CBCCC4
:1016030033CC33D9F422F4600DC9CCC313CB13CB41
:10161300CA13CAD9F6CC22E4FCFBFA2214FCFBFA67
:1016230022E6C33318461846184622E7C333194740
:101633001947194722181818E6084608700AE608D9
:10164300C3337005E633F4220822191919E7094751
:1016530009700AE709C3337005E733F4220922E668
:10166300084608C3134608336002E633F422E70949
:101673004709C3134709336002E733F422121662A2
:1016830060251216716020121624700302162E08AC
:101693000808E76670101819E766700A1819E766F4
:1016A30070041819E76622F422121662601C1216DF
:1016B300716017121624700712162E7001D322C000
:1016C300D012162E7006D0D0B322C32233D0D050FE
:1016D3001430E0F6C3E7960809E7960809E7960889
:1016E30009E796B32220E0D5E6970809E6970809AB
:1016F300E6970809E697B322121662601B12167169
:101703006016121624700712162E600CB322C0D076
:1017130012162E7005D0D022C32233D0D0501330EE
:10172300E0EBC3E7960809E7960809E7960809E797
:10173300962220E0E4E6970809E6970809E6970869
:1017430009E6972200121662604F1216716012E7C3
:10175300548066F6121638701112162E703B090962
:1017630009F4F618F618F618F62212164D7015122B
:10177300162408080860EAE6447FF618768018E421
:10178300F618F622121624601612162E7012E4F6BC
:1017930008F608F608E65480F6090909181818220D
:1017A300EAC0E0EBC0E0ECC0E0EDC0E0E687F0A407
:1017B300FBACF008E687F0A42CFCE435F0FA18093A
:1017C300E687F0A42C4B60027401CA35F0FCE433C5
:1017D300FB09E687F0D2F7A42CCB35F0FC1908E619
:1017E30087F0A42BCC35F0FBE433FD0819E687F032
:1017F300D2E7A42C4ACB35F0CD3400FC09E687F0C0
:10180300D2E7A42DCC35F0FDE433FA0918E687F0CE
:10181300D2F7A42CCD35F0CA3400FC08E687F0D209
:10182300E7D2F7A42ACC35F07A7E20E70B0ACB3334
:10183300CBCD33CDCC33CC33CB3350147004ED301C
:10184300E00ED2F1E4CD3DCDCC3CCC3B5005DA05E6
:10185300C2F1EB547FC63308E63392F0FBE733095A
:10186300E733C39A502D2B70190C0D4C4D7015187E
:1018730006E608C333700D20F10AA2F013F6E4184C
:10188300800B4024E4F630F002768018F618F61840
:10189300F68024D33B14501074FFA2F013F618768D
:1018A30080E418F618F6800FA2F013F618E6330357
:1018B300F618ECF618EDF6D0E0FDD0E0FCD0E0FB36
:1018C300D0E0FA221216716046121662603DE96892
:1018D3007008F618F618F618F622748067F71218CF
:1018E300FB090909748067F722121662601D12163C
:1018F300717005191919801A121638701F12164DB6
:10190300C37003E66733191919400718181822081A
:10191300080874FFF618F618F618F62212164D602A
:101923001712162E702192F01216247019501720D8
:10193300F014080808090909E7F61819E7F6181951
:10194300E7F61819E7F62212162460E6E869701F15
:101953000808E62480F608E436F618547FB47F0CB2
:10196300E654806007F6E418F618F622181822E900
:10197300C6CC08C6CD08C6CE08C6CFC0E0E8C0E0D6
:10198300EAC0E0EBC0E009E9F809E7FA09E7FBE69A
:10199300F918E6F8C3EC98ED99EE9AEBC2E7F5F087
:1019A300EFC2E795F0500E600CEBCFFBEACEFAE9FD
:1019B300CDF9E8CCF8EAA2E7D2E7FAEB33FB13F56B
:1019C300F0EEA2E7D2E7FEEF33FFC5F013A2E73054
:1019D300E601B313C5F0C3C0E0C0F07F00C39BFBB7
:1019E300605B9418600C401AD0E023F9D0E0F80251
:1019F3001ACA8AF0E9486003D2F0E4AFF0FAF9F8C2
:101A0300803BEB30E40D89F0EA6003D2F0E4AFF001
:101A1300F9CAF8EB30E30D88F0EF6002D2F0AFF0D3
:101A2300E4CAC9F8EB54076014FBC3EA13FAE913D9
:101A3300F9E813F8EF135002D2E0FFDBEDD0E0C07A
:101A4300E030E739C3E49FFFF5F0EC98FC42F0ED9A
:101A530099FD42F0EE9AFE42F0D0E0F9D0E0F8E5CD
:101A6300F0607AE923F9EE20E742D8028067C3EFFA
:101A730033FFEC33FCED33FDEE33FE80EAEC28FC60
:101A8300ED39FDEE3AFED0E023F9D0E0F8400280D4
:101A93001BC3EE13FEED13FDEC13FCEF135002D248
:101AA300E0FF08B800067F7F74FF802EEF335017E6
:101AB3008CF020F00260100CBC000C0DBD00080E71
:101AC300BE000408E860DFE933E813FFEE2313FEEA
:101AD3004F4D4C8008E95480FFE4FEFDFCEE33EFEC
:101AE30033F47004FCFD7E80D0E0FBD0E0FAD0E05C
:101AF300F8D0E0CFC618CEC618CDC618CCC6F9228A
:101B0300121662700418181822121671700D74FFE1
:101B1300F61819F61819F61819F622E7548066F61E
:101B2300121624700F12162E70F014F608F608F62B
:101B330008F680D112162E700CF608F60876800887
:101B4300E6447F80EC121650700C12163B60BFE621
:101B53005480F6E480BB12163B700519191980A551
:101B6300E869700C763F18768018F618F6E8F922C3
:101B7300E6CDC0E018ECC0E0E633CD33CDD313F6A9
:101B8300E719FCE7191933CC33C3947F400ECD9D7D
:101B9300502408E65480F6E418F6800FF4043D144C
:101BA300501408E6447FF6187680E418F618F6D049
:101BB300E0FCD0E0FD22CCD313CCFD18E4C6CBC0AF
:101BC300E018E4C6CAC0E00808ED08C633E613F619
:101BD30018E433C675F003C3CA97CA09CB97CB1968
:101BE3009C40047D08802EBD0003021CAC16B6FF8A
:101BF300050606081618C3CA33CACB33CB33CA2724
:101C0300CA09CB37CB193CC37D08803E187D082019
:101C1300E75CC633C6CA33CACB33CB33DDF1D5F069
:101C2300EB30E77BCA97CA09CB974ACB199C406F25
:101C33004B7025E620E0218066187D08C3CA97CA49
:101C430009CB97CB199CD3C633C6CA33CACB33CB84
:101C53003350C9DDE7D5F0E1D3E4C636C608C6364E
:101C6300C608C636C608C636C61818188031C3CA91
:101C730097CA09CB97CB199CB34097C633C6CA33CF
:101C8300CACB33CB33DD34D5F02EC6A2E0C640C871
:101C9300CA27CA09CB37194A70BECB3CB480B908EE
:101CA30008E63308E633601F181818D0E0FAD0E0CE
:101CB300FBD0E0FCD0E0FD22187D08CA27CA09CB7F
:101CC30037CB193CD3808013F618E4B67F11F6188E
:101CD300B6FF0EF618C60470D20808768080CAF6DE
:101CE30018F618F680C5080808EAC0E0EBC0E086DD
:101CF300F0E7A4FA180986F0E7A42AFA180986F08F
:101D0300E7A42AFA180986F0E7A42AFA1986F0E765
:101D1300A4FBE5F02AFA190886F0E7A42BFBE5F00B
:101D23003AFA190886F0E7A42BFBE5F03AFA1818FB
:101D33000986F0E7A4C5F02BFBE43AFA1908E7C5D6
:101D4300F0C6A426F6E5F03BFBE43AFA1886F0E782
:101D5300A4F6E5F00826F6E43B08F6E43A08F6D0E4
:101D6300E0FBD0E0FA22E4CFC0E0E4CEC0E0E4CD73
:101D7300C0E0E4CCC0E075F020C3E633F608E633F8
:101D8300F608E633F608E633F6181818EC33FCEDDC
:101D930033FDEE33FEEF33FFC3EC9709ED9709EE06
:101DA3009709EF97191919400FFFEC97FC09ED9765
:101DB300FD09EE97FE191906D5F0BEECF709EDF70C
:101DC30009EEF709EFF7191919D0E0FCD0E0FDD0BF
:101DD300E0FED0E0FF22181818E4C396F608E49654
:101DE300F608E496F608E496F6226016080808C694
:101DF300C313C618C613C618C613C618C613C6D54A
:101E0300E0EA227009080808226016181818C6C3E9
:101E130033C608C633C608C633C608C633C6D5E0BC
:101E2300EA22E627F60809E637F60809E637F60850
:101E330009E637F622E026F608A3E036F608A3E023
:101E430036F608A3E036F622E026F008A3E036F0E3
:101E530008A3E036F008A3E036F022C3E697F608BD
:101E630009E697F60809E697F60809E697F622C306
:101E7300E096F008A3E096F008A3E096F008A3E04C
:101E830096F022E056F608A3E056F608A3E056F6CD
:101E930008A3E056F622E056F008A3E056F008A3A4
:101EA300E056F008A3E056F022E0F608A3E0F608B7
:101EB300A3E0F608A3E0F622E6F008A3E6F008A301
:101EC300E6F008A3E6F022E0FAA3E0FBA3E0FCA31C
:101ED300E0FD22EAF0A3EBF0A3ECF0A3EDF022CABD
:101EE300C0E0E6F0A308DAFAD0E0FA22CAC0E0E0E4
:101EF300A3C582CCC582C583CDC583F0A3C582CCDF
:101F0300C582C583CDC583DAE6D0E0CA22C3E4988F
:101F1300F8E499F9121F518026C3E49AFAE49BFB73
:101F2300E920E7E9121F51E498F8E499F922C3E4A0
:101F330098F8E499F9121F51E498F8E499F9C3E485
:101F43009AFAE49BFB22EB20E7CFE920E7E0B90014
:101F530010BB0008E88AF084F8AAF022E4FBC8FA70
:101F630022EB70227B10C833C8C933C9335007C36F
:101F73009AC3DBF280069A50012ADBEAC833F4C81D
:101F8300C933F4C9FA2275F008E4C833C8C933C9A0
:101F930033C99AC99B5004C92AC93BD5F0ECFBC885
:101FA30033F4C8E4C9FA22600D08C6A2E713C618C1
:101FB300C613C6D5E0F322600C08C6C313C618C601
:101FC30013C6D5E0F422700422600D18C6C333C6CD
:101FD30008C633C6D5E0F41822251810AF08F51843
:101FE300400215198008F51840021519D2AF22C016
:101FF300D0251810AF08F518500205198008F518F8
:1020030050020519D2AFD0D0222518F58210AF089F
:10201300F518400215198008F51840021519D2AFBA
:1020230085198322C5822518C582C583351910AF4A
:1020330007F5198582188007F519858218D2AFC56F
:1020430083222518F582E43519F58322E4732518D4
:10205300C582C0E0E51934FFC583C0E0E518C39528
:102063008224F810AF088583198582188008858338
:1020730019858218D2AFCEF0A3E520F0A37808E645
:1020830008F0A3DEFAEFF0A3E58124FAF8E608F0FE
:10209300A3E608F0A3E608F0A30808E608F0A3E621
:1020A30008F0A315811581D0E0FED0E0F815811565
:1020B300811581E8C0E0EEC0E0222518C582C0E0AA
:1020C300E51934FFC583C0E0E518C3958224F910F0
:1020D300AF0885831985821880088583198582183E
:1020E300D2AFCEF0A3E520F0A37808E608F0A3DE94
:1020F300FAEFF0A3E58124FBF8E608F0A3E608F085
:10210300A30808E608F0A3E608F0A315811581D01B
:10211300E0FED0E0F815811581E8C0E0EEC0E022D2
:10212300851983851882E0A3FEE0A3F5207808E0F3
:10213300A3F608DFFAE0A3FFE0A3C0E0E0A3C0E05A
:10214300E0A3C0E0E0A3C0E0E0A3C0E010AF0885D7
:1021530082188583198008858218858319D2AFD0A8
:1021630083D082020122851983851882E0A3FEE0D1
:10217300A3F5207808E0A3F608DFFAE0A3FFE0A3C5
:10218300C0E0E0A3C0E0E0A3C0E0E0A3C0E010AF84
:10219300088582188583198008858218858319D25A
:1021A300AFD083D08222C0D02518C582C0E0E51904
:1021B30034FFC583C0E0E518C3958224F310AF084C
:1021C3008583198582188008858319858218D2AF83
:1021D300C8F0A3E9F0A3EAF0A3EBF0A37908E709B9
:1021E300F0A3D8FAECF0A3EDF0A3EEF0A3EFF0A385
:1021F300D0E0F0A3D0E0F0A3D0E0F0A3E520F0A37B
:10220300E5F0F0A322851983851882E0C0E0A3E0FE
:10221300F9A3E0FAA3E0FBA37808E0F608A3DFFA4A
:10222300E0FCA3E0FDA3E0FEA3E0FFA3E0C0E0A386
:10223300E0C0E0A3E0F5D0A3E0F520A3E0A3F5F030
:1022430010AF0885831985821880088583198582D4
:1022530018D2AFD082D083D0E0F8D0E032740480BB
:1022630006740280027401C0E0F40412200CD0E072
:10227300121EE2227404800474028000CCC0E0EDDC
:10228300C0E0E518C39CCCAD1950011D10AF068CFE
:10229300188D1980068C188D19D2AF121EEFD0E05D
:1022A300FDD0E0FC22D083D082E9C0E0E493A3C355
:1022B30086F0C5F095F0F908E493A386F0C5F09590
:1022C300F0700BE493A3C3994005E9048002A3E4EF
:1022D30075F002A42582F582E5F03583F583D0E01D
:1022E300F9E493A3C0E0E493C0E022D083D082EC6E
:1022F300C0E0EDC0E0E493A3FCE493A3FDED4C60E8
:102303000D12233AEC24FFFCED34FFFD80EFE49340
:10231300A3FCE493A3FDED4C600D122379EC24FFA1
:10232300FCED34FFFD80EFD0E0FDD0E0FCE493A3AF
:10233300C0E0E493C0E022C0E0C3E49396087401D4
:10234300939618400FE49366700808740193661817
:1023530070007019A3A3C3E49396087401939618AD
:10236300A3A3400DD0E0D0E0D0E002232AA3A3A38F
:10237300A3A3A3D0E022C0E0C0F088F0E49366708A
:10238300080874019366187000A8F0A3A3700BD01B
:10239300F0D0E0D0E0D0E002232AA3A3D0F0D0E035
:1023A30022FFFFFFFFFFFFFFFF74F51220BDEAFED0
:1023B300EBFFEE2434F8EF3400F988088909EE24A2
:1023C300351224E4F8EE24371224E4F50AEC850AE6
:1023D300F0A4FCAAF0850AF0EDA42AFDE82CF8E4A9
:1023E3003DF97A257B00121F51EA8508828509830E
:1023F300F05407F87401B800028004C333D8FCC05A
:10240300E0E0131313541FF8EE28F8EF3400F9E853
:10241300245DF582E93400F583D0E0F8E0586008E4
:10242300850882850983801DEE24361224E4F5F0A5
:10243300EA84A8F0EE28F8EF3400F9E82438F582AE
:10244300E93400F583E0F97F0402216974F5122071
:10245300BDEAFEEBFFEE24341224E4C0E0EE2435A3
:10246300F582EF3400F583D0E0F08E828F83A3A34F
:10247300A3A3A3E0FAA3E0FB8E828F83A3A3A3A36A
:10248300A3A3A3E0FCA3E0FDECC39AF50AED9BF53F
:102493000BEE2480F508EF3400F509850882F583F7
:1024A300E06401702BEE2481F582EF3400F5831292
:1024B300227B1224ED7402121FF2E960137C7D7DEE
:1024C30005EEFAEFFB120C3F850882850983E4F0E1
:1024D300AC0AAD0BEEFAEFFB1223AC122A40022436
:1024E3004AF582EF3400F583E022C082C083851869
:1024F30082851983E0F8A3E0F9C3EA9CEB9D5012AF
:10250300C3EC98ED994019C3EA98EB9950127901FD
:102513008010C3EA98EB9940F5C3EC98ED9950EE1F
:102523007900D083D08222EAC39CFAEB9DFB220080
:10253300008521878522C622C0E074EF1221A97588
:102543009B00906182E0A2E640030225FCE591A294
:10255300E640030225FC7591BF900442E0640570D8
:1025630008120DDD120DE98003120DE3752100122F
:102573000E4FE9900443F07900120E43120BA97A2F
:10258300017B00900441E0F9121113907803E06499
:102593004260030226459005DFE014F06003022643
:1025A30045C2AF1225A900782AD0E0F618D0E0F68C
:1025B300E59F5407F97005908F828003908F2678EA
:1025C30008121EACE9C4C0E07829E65508F50808EE
:1025D300E65509F509740B7808121FBAD0E02508EF
:1025E300F8906270E0A2E740F8E8C333906272F0BB
:1025F300906270E0D2E0F08049E0A2E55024E591DA
:10260300A2E5501E7591DF900442E0640D701390B3
:102613000464E004F064287002E4F07A00E0F91244
:102623000EC1906181E0A2E35009E5E9A2E3500302
:1026330075E9F7A3E0A2E75009E591A2E750037516
:10264300917F7F04022208C0E0C0D0C082C0839083
:102653006183E0A2E05009E5BFA2E0500375BFFE2D
:10266300E0A2E15009E5BFA2E1500375BFFDE0A27E
:10267300E25009E5BFA2E2500375BFFBE0A2E350BD
:1026830009E5BFA2E3500375BFF7E0A2E45009E5F3
:10269300BFA2E4500375BFEFE0A2E55009E5BFA276
:1026A300E5500375BFDFE0A2E65009E5BFA2E6509F
:1026B3000375BFBFD083D082D0D0D0E032C0E074E6
:1026C300F21221A9E5A7A2E4500FE5A1A2E4500963
:1026D30053A7EF75A1EF122714E5A7A2E5500CE568
:1026E300A1A2E5500653A7DF75A1DFE5A7A2E1503C
:1026F30009E5A1A2E1500375A1FDE5A7A2E2500CF3
:10270300E5A1A2E2500653A7FB75A1FB7F010222BC
:102713000874F81220BD752101900442E06406702C
:10272300077A007B00120DC5A2AFE433FED2AF904F
:102733000448E0640170187A207B00900441E0F9BA
:102743001211917A207B00900441E0F91211199043
:102753006182E0D2E6F09005DEE0602185C622804A
:1027630016900447E064017008E5C654F84405F583
:10277300C653BEFC1225347401652160E4EEA2E069
:1027830092AF7F0102216900008E238F2485822866
:10279300858327851882851983E0CEA3E0CF85281A
:1027A30082852783EBC9EAC8EDCBECCA75F010C369
:1027B300E833C8E933C9EA33CAEB33CBC3EA9EF53E
:1027C30026EB9FF525B35004AB25AA26EC33CCEDBD
:1027D30033CDD5F0DAAE23AF242274F11220BD8AB3
:1027E300088B098C0A8D0B740F122045780C121E6E
:1027F300AC908F367808121E86908F36780C121E96
:10280300867808790C1214DE50157808790C121E9C
:102813005E908F2278081214FE4015790180137898
:102823000C7908121E5E908F22780C1214FE40EB76
:1028330079007F0802216974ED1220BD8A088B0993
:102843008C0A8D0B7413122045780C121EAC908FDA
:10285300367808121E86908F36780C121E86780CF6
:1028630079081214DE40117808790C121E5EAA084A
:10287300AB09AC0AAD0B80227510007511007512FF
:10288300007513017810790C121E5E781079081206
:102893001E25AA10AB11AC12AD137F0C0221699057
:1028A3008F367808121EAC8A828B837808121E99A1
:1028B3007F0402216974F51220BD8C828D83780810
:1028C300121EAC8A828B837808121E7212290CC3E3
:1028D300E098F0A3E0991228FE401E908F627808DA
:1028E300121EAC8A828B837808121E4B8E828F83D2
:1028F300E02420F0A3E0344EF080A4F08E828F8396
:10290300C3E09420A3E0944E22EA2404F8EB3400BD
:10291300F9E8FEE9FF8C828D83A3A3A3A3E0F8A3C8
:10292300E0F98E828F832274F51220BDE9FE9005B3
:1029330094E0FAA3E0FBEEC333F8E433F9749D2883
:10294300F582748E39F583E02AF508A3E03BF50997
:102953007808122264908F6A121ECA12278C74029E
:10296300121FF28A088B098C0A8D0B7410780812D7
:102973001DEDAA08AB097F0402216974F11220BD81
:102983008A0C8B0D8C0E8D0F740F122045E0FAA369
:10299300E0FB7411122045E0F508A3E0F509741378
:1029A300122045E0FEA3E0FF7808122264EA240126
:1029B300F508EB3400F509E4F50AF50B780C790812
:1029C300121CE9908F2E7808121EAC780C7908122D
:1029D3001CE9AA0CAB0DAC0EAD0F12278C740212BE
:1029E3001FF28B09EA450960047A0180027A00EC40
:1029F3002AFCED3400FDECF8EDF97A717B02121F2D
:102A03005188088909E4F50AF50B8E828F837808CB
:102A1300121EBBECF8EDF97A717B02121F518A0882
:102A23008B0974057808121FC98E828F83A3A3A311
:102A3300A3E508F0A3E509F07F08022169C082C07D
:102A430083E9906000F0D083D08222C0E074F21258
:102A530021A9A2AFE433FED2AFC2C0E5D1A2E450B4
:102A63000653D1EF12135FEEA2E092AF7F01022271
:102A730008C0E0C0D0E8C0E0E5A8D2AFC2C7A2E773
:102A830092AFD0E0F8D0D0D0E032C0E0C0D0E8C000
:102A9300E0E9C0E0C008C009C082C083A2AFE4334C
:102AA300F9D2AF900C4FE0F8A3E0687008539AF79F
:102AB300A374018026C2EA900C4FE0F50874012547
:102AC30008F0741D2508F582740C3400F583E0F5D5
:102AD300F9900C4FE0C394324002E4F0E9A2E09293
:102AE300AFD083D082D009D008D0E0F9D0E0F8D0BD
:102AF300D0D0E032C082C083E9900EEAF0022D7B91
:102B030074F7122051E9900360F07C987D037AFFFB
:102B13007BFF1208CD90036174FFF0A3F0A3E4F0F0
:102B2300A3F07905120855900360E0F912077D7A46
:102B3300EB7B08120AA7023A8974F41220518A081F
:102B43008B09EB54806030900360E0F91210FB8A2C
:102B53000A8B0BAE0AAF0BEE4F60138E828F83E0AE
:102B630064B0700312086DEEFAEFFB1210E9AA08C5
:102B7300E5096480FB80047A007B00022D4A74F22D
:102B830012205174FC121FDCEAFEEBFF74121220B8
:102B930045123F70EE4F7003022C2474021220453D
:102BA300EEF0A3EF122F85ECF0A3ED122F85AA828E
:102BB300AB83120777E9F50A706AE5084509606493
:102BC3008E828F83123F56EE4F60567A067B001239
:102BD300114F8A0C8B0DA80CA90DE8497005750AD5
:102BE30013804188828983E4122C31EEF0A3EF1223
:102BF3003F81E508F0A3E509F0900366122CB89035
:102C030003667005123A33801B123A218003EAFCF3
:102C1300EBFD8C828D83122CB870F38C828D8380B4
:102C2300E3750A02A90A7404121FF2024170F0A3A9
:102C3300123F27A32274F2122051890AE975F01773
:102C4300A4FEAFF0900365E4F0900363122CB86028
:102C53000A121155900363E4F0A3F0EEFAEFFB12AE
:102C6300114F8A088B09EA4509602FEEFCEFFD79C5
:102C7300001210D7900363E508F0A3E509F07B0089
:102C83008008122CA2E4F0A3F00BEBC3950A40F2E8
:102C9300E50A900365F0790080027913024170EB35
:102CA30075F017A4F8A9F0900363E028FAA3E039BC
:102CB3008A82F583221236C5EA4B2274F41220511C
:102CC300740C122045123F4BFEE9FF75080075098D
:102CD30000800CE5082401F508E5093400F509C373
:102CE300E5089CE5099D503285080A85090B7403A4
:102CF300780A121FC9EA250AF8EB350BF98882898D
:102D030083A3A3A3A3A3A3123B08EE650A7003EF57
:102D1300650B70BFE8FAE9FB80047A007B0080272B
:102D230074F41220517900EAA2E0501B7508DC7597
:102D3300098E78081222647C047D007AEC7B0E12E3
:102D4300084F7402121FF27F04022123C082C08342
:102D5300900366122D82601C88828983A3A3E06A94
:102D63007003A3E06B8882898370E8A3A3A3A312F3
:102D730036C180047A007B00D083D0820201221204
:102D83004256E8492274EE12205174FC121FDCEA09
:102D9300FEEBFF851882851983E4F0A3F0EE24028D
:102DA300123A13EE2405123F2EEE2404F50EEF1211
:102DB300333AE024FE603924FC604624FE6052244A
:102DC300FE605E24FE7003022E9B24FE7003022E1F
:102DD300FF24FE7003022F0E24FE7003022F1D2416
:102DE300FC7003022F2C24FE7003022F3B022F786A
:102DF30090037F7417F0A3E4122F8D1204F5022FB2
:102E030078851882851983AC82AD83120873022FEB
:102E130048851882851983AC82AD83120879022F05
:102E230048850C08850D097402122045AC82AD83D8
:102E33008508828509831236C112079B8A0C8B0D84
:102E4300AC0CAD0DEC4D603BE4F50CF50D780C12BC
:102E53002264750C7F750D03780C122264750C8047
:102E6300750D03780C122264740812204512227B1C
:102E73001243D2121FF2E9F50C700B1236B712058A
:102E83000D800F750C01850882850983122F7B1233
:102E93003A33850C08022F4B7402122045AC82ADE5
:102EA30083850C82850D8312348C603C850C82856E
:102EB3000D83A3A312227B75107F75110378101263
:102EC300226475108075110378101222647408123D
:102ED300204512227B1243D2121FF2E9F509700B2F
:102EE3001236B7120513800F750901850C82850D03
:102EF30083122F7B123A33850908804C851882850B
:102F03001983AC82AD8312087F803A8518828519B4
:102F130083AC82AD83120885802B85188285198343
:102F2300AC82AD8312088B801C851882851983AC13
:102F330082AD83120891800D851882851983AC8236
:102F4300AD83120897E9F508E50860298E828F831F
:102F5300A3E06414601F850E82850F83E090037FD6
:102F6300122F85124252900380123A33E508A312BE
:102F73002F8D1204EF0239221242568518828519C9
:102F83008322F085188285198322F07C7F7D038557
:102F93000A82850B831236C52274EE12205174FC0B
:102FA300121FDC8A0A8B0B8C0E8D0FEA2405F508A1
:102FB300EB3400F5097C157D0079007A7F7B0312E1
:102FC30010D7E5082402F50CE509123F3185188274
:102FD30085198385821085831178101222648508F0
:102FE30082850983A3A3A3A3123483122264E50871
:102FF3002405F510E5093400F511781012226485D3
:103003000C82850D831237D81207957406121FF2AE
:103013008A108B11AE10AF11E50A2402F50AE50BF5
:10302300123A16EE4F700302315A801774021220BF
:10303300451236C188828983EAF0A3EBF090037FBF
:10304300E004F090037FE0C39405400302315AE4A7
:10305300F510F51178101222647510687511037854
:1030630010122264751069751103781012226474AA
:103073000612204512227B7910EEFCEFFD1243D499
:10308300121FF2E9705E850882850983A3A3A3A3B7
:10309300A3A3A3E0F8900368E06870481234831296
:1030A30022647C697D03E5082408FAE5093400FB02
:1030B3001210D17402121FF2E960298E828F83A34A
:1030C300A3A3A31236C190037FE0F5107402781016
:1030D300121FC974802510F58274033511F583EA34
:1030E300F0A3EBF0740212204585821085831178DA
:1030F30010122264740212204512227B850C8285F1
:103103000D831236E7121FF28A108B11AE10AF1126
:1031130090037FE0F51075110074027810121FC937
:10312300747F2510F874033511F988828983A312FB
:103133002CB87003023026E82403080808E9340099
:10314300F9EE4F600302302F8882898374FFF0A366
:10315300F090037FE004F090037FE0600A1236B73B
:103163001205017900800B850882850983123A2AAA
:10317300790A02392274EA12205174FE121FDC8C80
:10318300128D13EA2405F50CEB1243BC123F5A755A
:103193000800750900EA2402F510EB3400F51185E7
:1031A300188285198385820A85830B780A12226423
:1031B300850C82850D83A3A3A3A31233501222642B
:1031C300E50C2405F50AE50D123A16780A12226475
:1031D300850C82850D831233541207957406121FD2
:1031E300F28A0A8B0BEA450B70030232F5EA2404D8
:1031F300F50EEB12333A123F5A8A828B83A3A3A3B1
:10320300E0F98510828511831236CB60030232F513
:10321300E4F514F515781412226475146875150312
:1032230078141222647514697515037814122264D4
:10323300740612204512227B7913AC0AAD0B85105C
:10324300828511831243DA121FF2E9F50960030242
:1032530032F5900368E0F8E5087009E02402900372
:1032630080F08014900380E0FCE82402FAE4340048
:10327300FBEA6C7001EB707E850882AA8212347AB5
:103283009414123472506B850E82850F83E0C0E074
:1032930074812A123331D0E0F00508850E82850F40
:1032A30083A3E0C0E085080A7481250A123331D074
:1032B300E0F005089003681233501222647C697DA4
:1032C3000385080A7481250A123344121FF29003FE
:1032D30068E02508F50874FF6E700374FF6F6012D1
:1032E300EE24010EEF3400FFE508C39414500302EB
:1032F30031A2E50860131236D58510828511831239
:1033030036C112050779008014E509700375090AAF
:10331300851282851383EEF0A3EFF0A909740212DC
:103323001FF27F0E02212385080C7481250CF58280
:1033330074033400F583223400F50F850E82F58380
:1033430022FA74033400FB1210BF740222123F905E
:1033530022A3A312335A22123A21FDEEFAEFFB22E3
:1033630074EE12205174FE121FDC8C0E8D0FEA24B2
:1033730005F50CEB123F31750B0090037FE4F0F57C
:103383000AEA2402F508EB3400F509804490037F30
:10339300E0FA900368E0F812347A9417123472401A
:1033A3000D90037FE0F87416C398900368F012340D
:1033B300831222647C697D0374802AFA74031233B6
:1033C30047121FF2900368E0F890037FE028F005AE
:1033D3000AE50C2416F582E50D123335E0F8E50A0B
:1033E300C398507490037FE0C39416506BE50AC3EF
:1033F30033F8E433F9E50C28FEE50D39FF8518822F
:10340300851983AC82AD838E828F8312348C7008CE
:10341300750B01123A268050E4F510F5117810125D
:10342300226475106875110378101222647510698F
:103433007511037810122264740612204512227B40
:1034430079168508828509831243DA121FF2E9F59A
:103453000B700302339080BB7C7F7D0385088285DC
:1034630009831236C1120519A90B7402023924E922
:103473009400C365D03322EA28F8E43400F9E82243
:10348300E0F5107511007810221239198A108B118A
:10349300AC10AD11EC4D2274EA12205174FC121FD2
:1034A300DC8A0C8B0D8C128D13EA2405F50AEB12C2
:1034B3003A16750800750900E50A2402F510E50BB4
:1034C3003400F511740212204585820E85830F782E
:1034D3000E122264850A82850B83A3A3A3A3123F42
:1034E30036122264E50A2405F50EE50B3400F50FC8
:1034F300780E122264851082851183123A1C1236CB
:10350300BB1207957406121FF28A0E8B0FAE0EAF15
:103513000FE50C2402F50EE50D3400F50F80388815
:1035230082898374FFF0050812332A74FFF00508BB
:10353300900368E0F50C750D00780C1222647C6929
:103543007D0385080C7481250C123344121FF290FD
:103553000368E02508F508EE4F60278E828F83A36A
:10356300A3A3E0F9850E82850F831236CBEE2404E4
:10357300123F2EE96027850C82850D831236AD122A
:103583003A33E50870030236931236D5850E8285E9
:103593000F831236C112051F79000236A8E4F51411
:1035A300F5157814122264751468751503781412CE
:1035B3002264751469751503781412226474081251
:1035C300204512227B7911EEFCEFFD850E82850FDB
:1035D300831243DA121FF2E9F509709A850882AA69
:1035E30082EA9003687009E02404900380F0802548
:1035F300E0F8900380E0F514E82404FCE43400FDD3
:10360300EC65147001ED708112347A9412123472E5
:10361300400302358C850C82850D83E0C0E0748104
:103623002A123331D0E0F00508850C82850D83A37F
:10363300E0C0E012332AD0E01236F085820C858395
:103643000D780C122264740412204512227B85101B
:10365300828511831236E7121FF28A0C8B0DAE0C92
:10366300AF0D85080C7481250CF874033400F9EE52
:103673004F7003023522851882851983E088828979
:10368300831236F0A3E0C0E012332AD0E0023530D3
:10369300E509700375090A850A82850B831236AD25
:1036A300123A33A909740402332212425685128254
:1036B300851383227C7F7D03850A82850B831236E3
:1036C300C522E0FAA3E0FB221236C5120783E9F50F
:1036D3000922900380E0F5F0E5088490037FF07CF5
:1036E3007F7D032212335A1207A1740422F00508C6
:1036F3008518828519832274EC12205174FE121FDF
:10370300DC8A088B098C0E8D0FEA2405FEEB34004E
:10371300FF123903EE2418123F2EEA450B70030201
:1037230037A61238EC50291237CB8A108B11EA4591
:1037330011606B7912AC0AAD0B850882850983127F
:1037430036C185108285118312204FE9F50A70581E
:10375300E4F50AF50B780A1222648E828F83A3A301
:10376300E0F50A780A122264EE2403123A13780A67
:103773001222648E828F831237D81208BB7406120A
:103783001FF2E9F50A7021850C82850D83E0701F15
:103793008508828509831236C11205258011750AB1
:1037A3000E8009750A018004E50A6003123A268532
:1037B3000C82850D83E0600479008002A90A7402FB
:1037C300121FF27F0C02212385188285198312367A
:1037D300C51208A922123A21FD85088285098312A0
:1037E30036C52274EE12205174FE121FDC8A088B38
:1037F300098C0C8D0DEA2405FEEB3400FF750E00D9
:10380300123903EA450B70030238CA1238EC502C04
:103813001237CB8A0E8B0FEA450F604A7912AC0A36
:10382300AD0B8508828509831236C1850E82850F0B
:103833008312204FE9F50E60030238CD8508828597
:103843000983123B08AA0AFB1238DE70147AFF7B45
:10385300FF1238DE606C88828983E50AF0A3E50BEA
:10386300F0750A008007750E0E805F050A900365E8
:10387300E0FAE50AC39A504AE50A75F017A4FAABD1
:10388300F088828983A3A3E02AFAA3E03BFB8A8220
:103893008B83123A1CEC4D70D2750A17750B0078A6
:1038A3000A122264EEFCEFFD1210BF7402121FF223
:1038B300EEFCEFFD8508828509831236C112052BC4
:1038C3008014750E098003750E0112424E850C8219
:1038D300850D83123A33A90E02346D12089D8A10A6
:1038E3008B11A810A911E84922E5082402F508E57F
:1038F300093400F5098A828B83A3A3A3E0A2E522FE
:10390300851882851983AC82AD838E828F831239A9
:10391300198A0A8B0B22E0FAA3E0FB12079B22749D
:1039230004121FF27F0A02212374EC1220518C101F
:103933008D11EA2405F50CEB123F31750F00EA24D3
:1039430002F50AEB123A16850A82F5831236C11282
:1039530044607003023A08750E008071850C8285FD
:103963000D83E06401704F8E828F83A3A312227BA9
:103973008E828F83A3A3A3A3E0F51275130078129D
:10398300122264EE2405F512EF3400F513781212B7
:1039930022641236BB1208BB7406121FF2E9F50F3C
:1039A3006014850C82850D83E4F012424E851082EB
:1039B300851183123A337C177D007900EEFAEFFB11
:1039C3001210D78E828F83E4F0A3F0050E90036567
:1039D300E0F8E50EC398501EE50E75F017A4F8A99C
:1039E300F0850882850983A3A31243C6123A1CEC0F
:1039F3004D600302395F85088285098374FFF0A354
:103A0300F0E50F70061236BB120531A90F0237C657
:103A1300F50AEF3400F50B22A3123A21FD22E0FC54
:103A2300A3E0228E828F83124256850E82850F83F6
:103A3300E8F0A3E9F022C082C083900361E06A70DA
:103A430003A3E06B70067A617B0380047A007B003A
:103A5300022D7B74F71220517F00EF75F003A4F859
:103A6300A9F0EC28F8ED39F988828983E06A7003BC
:103A7300A3E06B7006E8FAE9FB800B0FEFC3940237
:103A830040D87A007B007F0102212374F612205173
:103A930012403F70067A007B008007A3A3A3A31202
:103AA30036C102410074F2122051E9FE740E122055
:103AB30045123B087410122045123F708C828D838F
:103AC300E06402703BA312425288828983E0F50CC2
:103AD300A3E0F9A80C740268700374296970217556
:103AE3000C02750D00780C12226478081222647897
:103AF3000A122264EEF91208DF7406121FF2800222
:103B03007901024170E0F50AA3E0F50B2274E81293
:103B1300205174FB121FDCE9851882851983F08A12
:103B2300168B178C0E8D0F741F122045123F707465
:103B330021122045123B087423122045123F5A7567
:103B430010008C828D83A3A3A3E0A2E4502A741DEA
:103B53001220451237D18A828B83E5824583700315
:103B6300023C1C790AAC0EAD0FAA16AB1712204FFC
:103B7300E9F5106003023C1F850E82850F83E06424
:103B8300026003023ED5A31242528508828509834F
:103B9300A3858212858313E50E2406F50CE50F1227
:103BA3003F3188828983E0FAA3E0F9EA2400F5141F
:103BB300E439F51578141222EE010000280128E4F7
:103BC3003B07000228BB3C03282B3C0029E53D01B1
:103BD300290D3E0229B43D0329E53D0429763ED54E
:103BE3003EEE4F703E850C82850D83123F4BFAE902
:103BF300FB8A828B83E0850A82850B83123F8712BF
:103C030022648A828B83A3123A21FDAA08AB09128C
:103C130010BF7402121FF2800375100EA9107405F1
:103C23000243B475100B80F4EE4F70F7850A82855A
:103C33000B837401F0123F60850882850983F07C51
:103C4300007D00850E82850F83A3A3A3A3E0240137
:103C5300FAA3E03400FB12079BEA4B60418A828B94
:103C630083E02402F8850A82850B83E028F0EA24A6
:103C730004F8EB3400F988828983E0851282851386
:103C830083123F99123F871222648A828B83123AEE
:103C93001BE5082403FAE5093400FB023C12850AFC
:103CA30082850B83E02404F07C047D007900AA1252
:103CB300AB131210D7023C1FEE4F6003023C2612D7
:103CC3003F60FEA3E0FF850A82850B837404F0EE58
:103CD300850882850983F0EF851282851383F0744A
:103CE30003122045AC82AD83EEFAEFFB12402D7038
:103CF30003023D918A828B83A3A3123F5674011260
:103D0300204585820E85830F780E12226474051276
:103D1300204512227B7CFF7DFF1207A17404121F32
:103D2300F28B0FEA450F7033850C82850D83123FAA
:103D330036122264850C82850D83A312227B7C02BA
:103D43007D007AB37B8F1205CD7404121FF2E970E4
:103D53000A740112204574FFF0A3F08E828F83E072
:103D630064027034750C02750D00780C1222648E97
:103D7300828F83123A1BE5082404FAE509123347BC
:103D8300121FF2850A82850B83E0240280097401E5
:103D9300122045EEF0A3EFF07401122045123F47C5
:103DA300F07401122045A3123F3FA3A3A3F0023CEA
:103DB3001FEE4F6003023C26850C82850D83123A69
:103DC3001CAA16AB171208D3850A82850B837402CB
:103DD300F0EA850882850983F0851282851383EBD7
:103DE30080CBEE4F6003023C26123F60F8A3E0F95C
:103DF300850A82850B837402F0E88508828509832E
:103E0300F0E985128285138380A3850C82850D8357
:103E13001236C11210B9EAFC8C82A882C39EE49FB9
:103E2300404BE86E7001EF70047C00801F851882A0
:103E3300851983E0FAEE2AFAEF3400FBC3EA98EB24
:103E430094005003E08004EECCC39CFCEC850A8212
:103E5300850B83F08C0A750B00780A122264850C9B
:103E630082850D83E02EFCA3E03F023C0D75100715
:103E7300023C1FEE4F6003023C26850C82850D83B6
:103E8300124252850A82850B837407F088828983E4
:103E9300123F3F123F27E0851282851383F0E82407
:103EA30002FAE93400FB8A828B83123F3F123F7888
:103EB300123F47A3123F81123F50F0E82405F8E96F
:103EC3003400F988828983123F50A3123F99A302D9
:103ED3003DAD741D1220451240387003023C1C1284
:103EE3004252880C890DE8450D7003023C1C8E106C
:103EF3008F117810122264780A1222647808122231
:103F0300647406122045E0F9AC0EAD0FAA16AB1788
:103F1300850C82850D8312204F7406121FF2E9F57A
:103F230010023C1FF088828983A322F50CEF340032
:103F3300F50D22E0F50E750F00780E22E08508825C
:103F430085098322123FA022124256E822123FA083
:103F5300A3A322A3A3A3A3E0FEA3E0FF22850C82D5
:103F6300850D83E0F8A3E0F5838882E022E0F5087D
:103F7300A3E0F50922A3A3F08A828B83A322122C48
:103F830033A3A322F08A828B83123F9022E0F50AA7
:103F9300750B00780A22123F27123FA022E0850802
:103FA30082850983A3A32274EE12205174FE121F8B
:103FB300DC8A0A8B0BECFAEDFB7414122045E0F556
:103FC30010A3E0F5117416122045E0FE74181220B8
:103FD30045E0F50EA3E0F50F851882851983AC82C1
:103FE300AD8312402D603E851882851983124038B7
:103FF300602FA3A3123F70E50845096024780E12D1
:1040030022647810122264EEF9AC0CAD0DAA0AAB4F
:104013000B85088285098312204F7404121FF280D6
:1040230006790E8002790102346D12079B8A0C8B8C
:104033000DEA450D221236C512403F221208678A47
:10404300828B83E58245832274F612205174FE121B
:104053001FDC740C122045123F4B8518828519838F
:10406300F07401122045E9F0E4F508F50978081227
:1040730022647508027808122264740412204585AC
:10408300820885830978081222641208BB74061219
:104093001FF27402121FF2806474F7122051EAFEB9
:1040A300EBFF89087C987D031208D3EA5402600B66
:1040B300A908EEFAEFFB12078F80027901023A8911
:1040C30074F612205174FF6A700374FF6B701C7BCB
:1040D30000EB75F003A4F8A9F0EC28F8ED39F91218
:1040E30041050BEBC39402501480E61208A38A081F
:1040F3008B09A808A909E84960031241057F020258
:1041030021238882898374FF122C31E4F02274F610
:104113001220511208A38A828B83E58245836006AD
:10412300A3A3E0FA80027A007B0080D174F212200C
:10413300518A088B09ECFEEDFF740E122045E0F561
:104143000A124175701CEEFCEFFD7AFF7BFF1241F2
:104153007570047911801688828983E508F0A3E5D8
:1041630009F088828983A3A3E50AF079007F060218
:1041730021231208A38A0C8B0DA80CA90DE8492250
:1041830074EE122051EAFEEBFF8C088D09890C7442
:10419300121220451242527414122045123A1C7412
:1041A300161220451236C1750D00EC4D6003024214
:1041B300467402650C600302424188828983123A85
:1041C30021F9EC2400F50EE439F50FEAF4F8EBF4E9
:1041D300F9EC58F8E50F59F9E849705DE50824064C
:1041E300F8E5093400F9880A890B8882F5831233CC
:1041F300561208D38A108B11E50E65107004E50F73
:1042030065116042780E122264850A82850B83123F
:1042130033561208D97402121FF2E9F50D7027788C
:104223000E122264850882850983A3A312335412D4
:1042330008F17402121FF2800D750D808008750D50
:104243000D8003750D0BA90D0239278E828F831202
:10425300425622E0F8A3E0F92274E812205174E7F1
:10426300121FDC851882851983EAF0A3EBF08C1604
:104273008D17890E7431122045E0F512A3E0F51372
:104283007433122045E0F514A3E0F51574351220BC
:1042930045E0F50F750800750900E50975F003A4FD
:1042A300F8A9F08518828519831243C6E0F47003D8
:1042B300A3E0F470030243A4EE2402F50CEF1243CF
:1042C300BCE070030243A485160A85170B780A1213
:1042D3002264AC14AD15AA12AB1312085B7402125C
:1042E3001FF28A0A8B0BEA450B70030243A4E4F521
:1042F30010F511781012226474061220458582107D
:104303008583117810122264740912204585821066
:104313008583117810122264851282851383A3A3E7
:10432300A3A312227B7914AC0AAD0B8E828F831266
:1043330043DA121FF2E97069850A82850B83A3A30E
:10434300A3A31242527402122045123A33850C82FF
:10435300850D83E0A2E05018A90E7402122045AC2B
:1043630082AD838E828F831236C11207B3E942086E
:10437300850C82850D83E0A2E15026E50FF50A78CE
:104383000A122268A90E7403122045AC82AD838EF3
:10439300828F831236C11207AD7401121FF2E942F4
:1043A300080509E509C39402500302429DA9087454
:1043B30019121FF27F100221233400F50D850C82A0
:1043C300F58322E028FEA3E039FF8E828F832279D2
:1043D30016850A82850B831236C51208B574082226
:1043E30074F2122051EAFEEBFF890B7401650B6036
:1043F3000E7402650B70637901120AC5E9705BEEF6
:10440300FAEFFB1244606047750A00800B7C177D4E
:104413000079001210D7050A900365E0F8E50AC396
:10442300985021E50A75F017A4F8A9F0850882854C
:104433000983A3A3E028FAA3E039FB8A828B8312C2
:104443002D8270C985088285098374FFF0A3F07CEF
:10445300987D03EEFAEFFB1208CD02417012089D1E
:104463008A088B09EA45092274F21220518A088BC3
:1044730009ECFEEDFF740E122045123B08900EEA84
:10448300E0F4603D7A097B001210E3EA4B60328A64
:10449300828B8374B1F0A3E4123F7AA3123F78A313
:1044A300E508F0A3E5091244C7EEF0A3EF1244C7F1
:1044B300A3A3E50AF0A3E50BF0900EEAE0F91210CE
:1044C300EF024170F08A828B83A3A3A3A3A322C02C
:1044D30082C0839061907404F0A37448F0A3E4F065
:1044E3009061807440F09061BC7407F090618774B0
:1044F30069F09061B67416F07900120BAF7902126D
:104503000BB59023A8E493F46006E493F9120B8BA4
:104513007905120EA3024914C082C083E9540FF92E
:10452300906185E0696012E5C654804449F5C6E5AB
:104533009E547F644970F8E9F053C680E59E547F2A
:1045430070FA02491474F7122051E5A8FE53A87EAD
:10455300120B97C2BA539AFEC289759B00C2C2124C
:104563000B9D75A91175B905120BA3D2BA439A0114
:1045730074805E42A8024EA1C082C083906181E430
:10458300F0A302491175E90075910075BF0002019E
:1045930022C082C083906181E4F0A374C0F0A3E4DD
:1045A300024913C082C08374F8121FDC90044412C2
:1045B3004D83E849700302465D900444E054406033
:1045C300237908851882851983AA82AB83120CA5E7
:1045D300851882851983AA82AB83120957900444F4
:1045E300E054BFF0E054806010790C7A007B06122F
:1045F3000CA5900444E0547FF0E0A2E05008790059
:1046030012466554FEF0E0540260087901124665D3
:1046130054FDF0E054046008790012467054FBF036
:10462300E054086008790112467054F7F0E0541022
:104633006008790212467054EFF0E0542060087964
:104643000312467054DFF0A3E05401600D120BC156
:10465300120969900445E054FEF07408121FF20237
:104663004914120BAF12095D900444E022120BB5FA
:10467300120963900444E022C082C083E9600514F8
:10468300602A804F90619A7433F0A37455F090615F
:10469300A0743AF09005DCE064017009C2919004C3
:1046A300467467802D9004467461802690619A74E5
:1046B3003FF0A3745AF09061A0747FF09005DCE0A2
:1046C30064017009D2919004467471800590044688
:1046D300746AF0024914C082C083E9600B14600D50
:1046E30014600F14601180209023A480159023A5DB
:1046F30080109023A6800B9005DCE0640160F390AA
:1047030023A7E493906186F002491474EE122051BA
:1047130074F4121FDC851882851983AC82AD83750E
:10472300838F7582327404121EEF9023A493F46076
:10473300030248A0907808E0C39402500302488023
:104743007404122045AC82AD8375838E7582BB746D
:1047530008121EEFF97AFF7BFF7FFF7E00898285B7
:104763008210801874086E700302483574096E70E5
:1047730003024835740A6E7003024835E510C333EB
:10478300FCE433FD7404122045E5822CF582E583B5
:104793003DF583E0F50EA3E0F50F8E08750900746F
:1047A300027808121FC974482508FC74783509FD7E
:1047B3008C828D837808121EAC74087808121DED64
:1047C30085080C85090D8C828D837808121EAC74C4
:1047D300187808121DEDE50C4508F508E50DF509F7
:1047E300C3E50E9508E50F95098C828D8378081231
:1047F3001EAC8C828D837808121EAC741878084026
:1048030014121DEDE50C4508FCAD0DE50EC39CFC33
:10481300E50F9D800F121DEDE50C4508C3950EFCB9
:10482300E50D950FFDC3EC9AED9B5006ECFAEDFBFD
:10483300EEFF0EEEC39413500302476774FF6A70D2
:104843000374FF6B602D8F0874027808121FC974FC
:104853004812552F74783509F5837808121EAC85F4
:104863001882851983E5822510F582E5831252BCEF
:10487300E508F009E9C39404500302475875080199
:1048830075090078081222647402122045AC82ADC7
:10489300837AE97B081212FF7402121FF2740C125E
:1048A3001FF27F0A022123C082C083906186E0F851
:1048B3009023A7E4936870099023A6E493906186FC
:1048C300F09061AE7468F0A3746AF090624574FB73
:1048D300F0A304F053F4FD43FE029005DC7401F0F1
:1048E3009061A0E0643A7004790080027901120BB0
:1048F300AF024914C082C08390058EE06401700A40
:10490300900593E06004790C800279008003F0A3A2
:10491300F0D083D082020122C082C08375E1F1907E
:104923000591E0604D146008146051146049805192
:10493300120BD3900587E0F97A887B05120E259038
:104943008F2A121ECA120E5B908F46121ECA120EB7
:1049530031900592E0F9120E3D7901120E97900500
:1049630085E02416124AA974EBF0A3740BF07900C6
:10497300809F120BD980BC120BDF80B7120BE5802E
:10498300B2791280EB74F412205175D90D9005762B
:10499300E0A2E0E4331313F8124A15484401F5D9B1
:1049A3007800124A9340FB78008808747712552FD9
:1049B3007405124A9D40F275E195900576E0F97A07
:1049C300777B05120E2B900F0C7461F0A3740B12FE
:1049D3004AB8124AD8124ACF124C10124A1F78080A
:1049E300121EAC908F4A7808121E38908F367808C2
:1049F300121E86124AA37808121EBB900585E02476
:104A030014124AA97413F09004427402F07F040252
:104A13002123900587E0C4333354C022900585E0F9
:104A2300F8A3E0F5838882A3A32274F6122051121F
:104A33004BE18AD97800124A9340FB780080061232
:104A43004B47124C93E8C39940F5124BD3124A9348
:104A530040FB7800800812552B7405124C93E8C371
:104A63009940F375E195900F0C746DF0A3740B12DC
:104A73004AB8124AC2121ECA124AA3121ED690057F
:104A830085E02414124AA97412F0900442024E7E67
:104A9300880874882508F5827405124DEF94062260
:104AA300900585E0240EF8A3E0124AB0223400F901
:104AB3008882898322124BF97467F0A3740B221244
:104AC3004AD8124ACF124C14908F6222F0A3747FFB
:104AD300F0A3740B22124ADC22124AE022F0A374E0
:104AE30011F0A3740D2274F6122051124B3C124A9A
:104AF300154402F5D97800124A9340FB78008006EA
:104B0300124B47124C93E8C39940F575E195900F0A
:104B13000C124B52F0A3124B52124AC5121ECA1268
:104B23004AA3121ED6900585E02414124AA97414D0
:104B3300F09004427404024E80900597E0F97407E4
:104B430029F5D922880874982508F58274052274FA
:104B530079124B5F124B5FF0A3740B22F0A3740B1B
:104B6300F0A374792274F6122051124BE174064AB1
:104B7300F5D97800124A9340FB78008006124B4720
:104B8300124C93E8C39940F5124BD3124A9340FB5E
:104B93007800800812552B7405124C93E8C3994092
:104BA300F375E195900F0C7473F0A3740B124BEF34
:104BB300124AC2121ECA124AA3121ED6900585E0DB
:104BC3002414124AA97415F09004427403024E800F
:104BD3009005B7124B3F74044AF5D9780022124B63
:104BE3003C900587E0C4333354C0FA22124BF97466
:104BF30011F0A3740D22124BFD22124C0A7411F012
:104C0300A3740D124C0A22124AE0F0A322124C1490
:104C130022F0900F1A7411F0A3740D124BFD74114E
:104C2300F0A3740D124ADCF022C082C083124A1F23
:104C3300A3A3A3A3E402491174F7122051125771DD
:104C4300F8740439F9E82405FAE93400FB8A828B05
:104C5300831254E088828983A3A3A3A3A3A3A3A35A
:104C6300A3ECF0A3EDF088828983A3A3A3A3A3A35A
:104C7300A3E024FFF8A3E034FFF98A828B83E8F0F2
:104C8300A3E9F0024EA1880874E02508F5827405B3
:104C9300125407F5D90822EAFEEBFF9061D0E0F841
:104CA3007480C398FAEE248322124CB29404221225
:104CB30052CAE0F5D90AEAC32274F6122051EAFE79
:104CC300EBFF9061D0E0707575D90E75D90375D976
:104CD300047A008A08EE250812583F248C124D5599
:104CE30040F17A008A08EE250812583F2484124CBA
:104CF300AC40F175E1957908EE248C124D4E248475
:104D0300124D457C008C82AA82C3E49AF895E0F99F
:104D1300EE28F8EF39F9E8248BF582E9125403C041
:104D2300E0EE2A12583F24ABF582E91252BCD0E0E0
:104D3300F00CECC3940840CD124E0B8002790002B4
:104D43004E81FAEF3400FB120C9922124D4579047F
:104D5300EE22124CB2940822C082C08375D9027528
:104D6300D90375D90575E195EA2470F582EB124DE7
:104D730080EA2472F582EB124E1D0249141252CDC1
:104D8300124D8722E0F8A3E0F92274F6122051EACB
:104D9300FEEBFF9005E07406124DF91222647C01CC
:104DA3007903125125121FF275D90675D9037800BC
:104DB300124DDF40FB75E195900442E064087017E3
:104DC300EE2470F582EF124D80EE2472F582EF121D
:104DD30052BCE8F0A3E9F07901024E81880874E03F
:104DE3002508F5827405124DEF9405221252CDE089
:104DF300F5D908E8C322F07508E07509057808229B
:104E030075E1957904120E61EE2470F582EF12526A
:104E1300CD124D87EE2472F582EF1252CDE8F0A346
:104E2300E9F079012274F6122051EAFEEBFF90615A
:104E3300D0E0704379019005E0740BF0900442E0F8
:104E4300640770177508E075090578081222647CF9
:104E5300010909125125121FF27905740129F5D9A7
:104E630075D90378008003124C89E8C39940F8751B
:104E7300E195124E0B8002790080037401F07F02EA
:104E830002212374F7122051EAFEEBFF75D9037553
:104E9300D90375D90DEE24DE124EA6124E037F01FF
:104EA300022123F582EF125407F5D9227F03022151
:104EB300237401250AF5D975D90378002274F512F4
:104EC3002051124F356004780480027800E8240BE7
:104ED300F8EAC3984041750A099005E07409F0792E
:104EE30008124F1E60147508E07509057808122230
:104EF3006412511D121FF2750A0D124EB480031273
:104F03004C89E8C3950A40F775E1957904120E615F
:104F130012509A7901800279008091EE24E3FCEF2C
:104F23003400FD7AE17B05120C93850882850983A1
:104F3300E022124C9AF8EF1254D4F583E02274F372
:104F43001220518A088B09125130FAE5082483F59F
:104F53000AEB124FFF6004780480027800E824080B
:104F6300F8EAC3985003024FF8750C069005E074F5
:104F73000CF090045FE09005E1F07402C0E0F97C6E
:104F8300607D047AE27B05120C93D0E0F97C627DAC
:104F930004120C93850A82850B83E0601C750AE07A
:104FA300750B05780A1222647C067903AA08AB09FB
:104FB300125125121FF2750C0A7401250CF5D975CF
:104FC300D90378008009880A74E0250A124C8FE817
:104FD300C3950C40F175E1957904120E61E508243F
:104FE30070F582E509124D80E5082472F582E50922
:104FF300124E1D800279007F050221233400F50B38
:10500300850A82F583E02274F6122051EAFEEBFF53
:10501300125130FCEE2483F8EF12512B60047A0412
:1050230080027A00EA2404FAECC39A405E7A029082
:1050330005E0EAF0EE24F5F582EF1250A66019754B
:1050430008E075090578081222647C027903EEFAF8
:10505300125125121FF27A0674012AF5D975D90364
:1050630078008003124C89E8C39A40F875E195EE05
:105073002474125093EE248012509312509A7904A0
:10508300120E61EE240D124E0E80027900024E8143
:10509300F582EF12521622EE241DF582EF125216FC
:1050A300A3F0221254079005E1F088828983E0225D
:1050B30074F6122051125130FEEA2483F8EB125198
:1050C3002B60047C0480027C00EC2404FCEEC39C73
:1050D30040437C029005E07407F0EA24F6F582EB86
:1050E3001250A660157508E0750905780812226448
:1050F3007903125125121FF27C0674012CF5D97520
:10510300D90378008003124C89E8C39C40F875E109
:1051130095790180027900024E817C097903EEFAC8
:10512300EFFB120D05740222124AB0E0229061D007
:10513300E0F87480C3982274F5122051E9FEA2AFFF
:10514300E433F50AC2AF7F00EA246FF8EB3400F9C9
:1051530080010F88828983E0FCEFC39C50188F087D
:10516300EA2508FCEB3400FDEC246BF582ED1254C8
:10517300036E70DE8010EA2CFAEB3400FB1252B699
:10518300EE1250AC04F0E50AA2E092AF024EAF7407
:10519300F6122051A2AFE433FFC2AFEA246FF8EB5B
:1051A300125841FCE9FD8C828D83E014F07E00806F
:1051B300218E08EA2508F8EB125841246CF582E9A0
:1051C300125403C0E0E8246BF582E91252BCD0E02C
:1051D300F00E8C828D83E0F8EEC39840D4EA246EFF
:1051E3001252B974FF12520BEFA2E092AF024E813A
:1051F300C082C083E5A8F8C2AF1252B6E912520BBF
:10520300E8A2E792AF024914F0EA246AF582EB12AE
:105213005216221252CDE4F02274F21220518C82E3
:105223008D83A3A3A3A3E0541FF0EA243612557879
:105233008E828F83E4F0F50C850C8285820AEC253F
:105243000AF8ED1254D0F583E0C0E0EA250AF8EB42
:105253001252C0D0E0F0750D00850882850983E005
:10526300F50A750B00E50D780A121FAAE50AA2E0FC
:10527300502AE50C33333354F8250DC0E08E828F6A
:1052830083E0F8EA28F8EB1258412438F582E91252
:1052930052BCD0E0F08E828F83E004F0050DE50D63
:1052A300C3940840B4050CE50CC39405408A7F06FB
:1052B300022123EA246BF582EB1252CD223400F94A
:1052C300E8245D1252CA22F582E93400F583227480
:1052D300F612205190046EE0640170077A007B009F
:1052E3000253FD7E00900474E070F17401F0A3E4B6
:1052F300F0A3F09004D404F09004D7E4F0A3F0906A
:1053030004DA04F0900477E412541490048104F056
:105313009004A7E4F0908F42121ECA90048A121ED2
:10532300D690048EE4F0A3F0A3F09004F2F090047E
:10533300E6F09004DB7480F0A3E4F09004E1F090D5
:1053430004D9F090055D12540C900566F09004F5B5
:10535300F0900545F0A3F0908F42121ECA900547C6
:10536300121ED6908F42121ECA90054B121ED69063
:105373000551E4F0900553F090054FF09005691244
:10538300540C8E0874DD12552F74041252BC74FF32
:10539300F00EEEC3940440EA7E008E82A882747DF0
:1053A30028F5827405125403C0E074CF28F5827483
:1053B300041252BCD0E0F00EEEC3940540DC7E0034
:1053C3008E82A882745628F5827404125403C0E0B6
:1053D300745528F58274051252BCD0E0F00EEEC36A
:1053E300940840DC90046EE004F0640170089004BB
:1053F30076E0900470F07A727B04024E81F582EFBE
:10540300125407221252CDE022125414A312541440
:1054130022F0A3F0A3F0A3F022C082C083EA240306
:10542300F582EB1254036008E4F090046FE014F08B
:1054330090046EE014F0700690047074FFF08A829A
:105443008B83A3A3E4F0900582E0700D90046FE0DA
:10545300640170057900120E43024914C082C083AF
:10546300900475E4F0900474F090046EF0A3F0A33C
:1054730074FFF075E1F1024914C082C083780079AA
:1054830000900475E060047872790488828983A3AC
:10549300A3A3A3E0F902491474F6122051EAFEEB28
:1054A300FF120C4BEE2465F8EF1254D01254DEECCD
:1054B3004D6010900470125769850882850983E452
:1054C300F0A3F0EEFAEFFB120D3B024E811254D41F
:1054D300223400F988088909888222F583E0FCA335
:1054E300E0FD2274F7122051EAFEEBFF8E828F83D8
:1054F300A3A3A3A3E0FA7B001209CFEEFAEFFB12FA
:105503000C5D120D1D024EA174F612205178008815
:1055130008745612552F740412509608E8C3940861
:1055230040ED900456024E7E880874B82508F58233
:105533002274F6122051EA240D125578EC2403F854
:10554300ED3400F988088909EC2407F8ED12584175
:10555300FCE9FD125582121F518E828F83E8F0A35E
:10556300E9F0125582121F518B09EA4509600312B3
:105573005595024E81F8EB3400F9E8FEE9FF228CE1
:10558300828D83124D87850882850983E0FAA3E023
:10559300FB228E828F83E02401F0A3E03400F0220B
:1055A30074F6122051EA242EF582EB34001254DEF5
:1055B300EA2470125578780079FAECFAEDFB121FA1
:1055C300518E828F83E8F0A3E9F0780079FAECFA40
:1055D300EDFB121F518B09EA450960031255950231
:1055E3004E8174F0122051EAFEEBFF741012204535
:1055F3007808121EAC120DF58A0C8B0D8C0E8D0FD4
:10560300908F1E780C121E38908F36780C121E86DF
:10561300780C1222608E828F83124A22121ECA12C3
:1056230027DD7404121FF2E960030256CD8E828FC8
:1056330083E02402F8A3E0125841FAE9FB8A828B43
:10564300837808121E4B908F367808121EAC8A821C
:105653008B837808121E99EE240BF582EF1252BC4D
:10566300C082C0838E828F83A3A3A3A3A3E024015C
:10567300F8A3E03400F9D083D082E0687003A3E09C
:1056830069700479018045EE2407F8EF124AB012DD
:105693005599EE24741258467014EE24751256D49C
:1056A3007003A3E06D70078A828B83125599EE24F1
:1056B300801258467014EE24811256D47003A3E06E
:1056C3006D70078A828B8312559979007F080221B6
:1056D30023FAEF3400FB8A828B83E0FCA3E0FD888E
:1056E300828983E06C2274F3122051125771FE7485
:1056F3000439FFEE2404F50AEF3400F50BEE2465BC
:10570300F508EF3400F50980101254E0850882850E
:105713000983E4F0A3F01257638508828509831295
:1057230054E0EC4D6030EE2464125400F50C780C18
:10573300122268EE2463125400F9EEFAEFFB120C06
:10574300877401121FF2E985088285098360BA1202
:105753004D83E84970077C007D00125763024FFABE
:10576300850A82850B83E0FA7B0012098D2290045F
:1057730070E0F875F004A4C8AAF02AF9747228221C
:1057830074F2122051EAFEEBFF890A740E122045CF
:10579300E0FAEE2462125846600302583A1251307E
:1057A300F50CEE2483125400FB6004780480027825
:1057B300008908E928F8E412584124020808E9346A
:1057C30000F9E50C98E499A2D265D0334065EA70FC
:1057D30005750B028003750B01EB603375090078C7
:1057E300081222647AE07B05120CCF7402121FF2B6
:1057F3007508E07509057808122264AC0AA90B1232
:105803005121121FF27404250AF50A7CE07D057408
:1058130001250AF5D9850BD97800800A8808EC128E
:10582300552FED124C93E8C3950A40F075E1957935
:105833000080067907800279FF0252B1F8EF340045
:10584300F9E822F582EF125407640122C082C08373
:10585300800312587DE9F874FF28190470F4ECFAF8
:10586300EDFB024914C082C083800312587DE9F81E
:1058730074FF28190470F40249148C828D83E08A22
:10588300828B83F08C828D83A3AC82AD838A828BDF
:1058930083A3AA82AB832274E8122051907803E099
:1058A3006442705E9005DFE014F07056C2AF125888
:1058B300B400782AD0E0F618D0E0F6E59F5407F953
:1058C3007005908F828003908F267808121EACE9B2
:1058D300C4C0E07829E65508F50808E65509F50936
:1058E300740B7808121FBAD0E02508F8906270E0B4
:1058F300A2E740F8E8C333906272F0906270E0D29E
:10590300E0F0900470E0F874FF687003025BCCE889
:105913001266252402F8EF3401F98882898312661E
:105923009FEA4B600FEE2401F582EF3401F583E02B
:10593300F9121113EE2405F514EF3400F5158E82D8
:105943008F83A3A3A3A3A3A3A31260B112663B9067
:105953006054E0900449F0906055E090044AF09060
:105963006056E090044BF0906057E090044CF09048
:105973006058E090044DF0906059E090044EF09030
:10598300605AE090044FF090605BE0900450F09018
:10599300605CE0FC900451F090605DE0FD90045287
:1059A300F090605EE0F50C900453F090605FE0F5DA
:1059B3000D900454F090044FE0F5108C082508F87E
:1059C300E43400F9850C0812605C8D0812605C8574
:1059D3000D0812605CEE24F71265E71266918C8263
:1059E30085820AEE24F9F582EF1260A5EE24FB12FC
:1059F3006099EE24FFFAEF3400FB8A828B83E0F593
:105A030008A3E0F509E5084509603A906000E0C3A2
:105A130033F508E433F5098A828B83E02508F50E14
:105A2300A3E03509850E82F583126691906000E04C
:105A3300C333F8E433F98A828B8312664C244AF524
:105A430082E91260A5EE240BF8EF3400F9EE241D71
:105A5300F50EEF3400F50FEE2420FAEF3400FBEEE1
:105A6300241C1265CFEE240FF50AEF3400F50BE585
:105A730010700BED7008E50C7004E50D607985146A
:105A830082851583126667EE240D1265F12CFCA343
:105A9300E03DFD88828983ECF0A3EDF0126076701F
:105AA300031260DC90044AE0602485088285098340
:105AB3007401F0EE246A1265F17013EE247412651A
:105AC300F1700BEE24801265F170031260DC9060BC
:105AD30062E08E828F837003025B5FE02406FCA387
:105AE300E03400FD12667E120DEF8E828F83E02478
:105AF30012126641E48079EC601812607670238A92
:105B0300828B83126667850E82850F83ECF0A3ED8B
:105B1300800FEE24FD126099850E82850F83E4F0D9
:105B2300A3F0888289831260B1E0687003A3E069FF
:105B33006003025AA7850A82850B83E0600F8514F0
